{"abi":[{"type":"constructor","inputs":[{"name":"_collateralToken","type":"address","internalType":"address"}],"stateMutability":"nonpayable"},{"type":"function","name":"COLLATERAL_TOKEN","inputs":[],"outputs":[{"name":"","type":"address","internalType":"contract IERC20"}],"stateMutability":"view"},{"type":"function","name":"addRelayer","inputs":[{"name":"relayer","type":"address","internalType":"address"}],"outputs":[],"stateMutability":"nonpayable"},{"type":"function","name":"authorizedRelayers","inputs":[{"name":"","type":"address","internalType":"address"}],"outputs":[{"name":"","type":"bool","internalType":"bool"}],"stateMutability":"view"},{"type":"function","name":"balanceOf","inputs":[{"name":"account","type":"address","internalType":"address"},{"name":"id","type":"uint256","internalType":"uint256"}],"outputs":[{"name":"","type":"uint256","internalType":"uint256"}],"stateMutability":"view"},{"type":"function","name":"balanceOfBatch","inputs":[{"name":"accounts","type":"address[]","internalType":"address[]"},{"name":"ids","type":"uint256[]","internalType":"uint256[]"}],"outputs":[{"name":"","type":"uint256[]","internalType":"uint256[]"}],"stateMutability":"view"},{"type":"function","name":"createCondition","inputs":[{"name":"_question","type":"string","internalType":"string"},{"name":"_oracle","type":"address","internalType":"address"}],"outputs":[{"name":"marketId","type":"uint256","internalType":"uint256"}],"stateMutability":"nonpayable"},{"type":"function","name":"eip712Domain","inputs":[],"outputs":[{"name":"fields","type":"bytes1","internalType":"bytes1"},{"name":"name","type":"string","internalType":"string"},{"name":"version","type":"string","internalType":"string"},{"name":"chainId","type":"uint256","internalType":"uint256"},{"name":"verifyingContract","type":"address","internalType":"address"},{"name":"salt","type":"bytes32","internalType":"bytes32"},{"name":"extensions","type":"uint256[]","internalType":"uint256[]"}],"stateMutability":"view"},{"type":"function","name":"fillOrder","inputs":[{"name":"makerOrder","type":"tuple","internalType":"struct ConditionalToken.Order","components":[{"name":"maker","type":"address","internalType":"address"},{"name":"marketId","type":"uint256","internalType":"uint256"},{"name":"amount","type":"uint256","internalType":"uint256"},{"name":"price","type":"uint256","internalType":"uint256"},{"name":"isYes","type":"bool","internalType":"bool"},{"name":"nonce","type":"uint256","internalType":"uint256"}]},{"name":"takerOrder","type":"tuple","internalType":"struct ConditionalToken.Order","components":[{"name":"maker","type":"address","internalType":"address"},{"name":"marketId","type":"uint256","internalType":"uint256"},{"name":"amount","type":"uint256","internalType":"uint256"},{"name":"price","type":"uint256","internalType":"uint256"},{"name":"isYes","type":"bool","internalType":"bool"},{"name":"nonce","type":"uint256","internalType":"uint256"}]},{"name":"makerSig","type":"bytes","internalType":"bytes"},{"name":"takerSig","type":"bytes","internalType":"bytes"}],"outputs":[{"name":"success","type":"bool","internalType":"bool"}],"stateMutability":"nonpayable"},{"type":"function","name":"isApprovedForAll","inputs":[{"name":"account","type":"address","internalType":"address"},{"name":"operator","type":"address","internalType":"address"}],"outputs":[{"name":"","type":"bool","internalType":"bool"}],"stateMutability":"view"},{"type":"function","name":"marketCounter","inputs":[],"outputs":[{"name":"","type":"uint256","internalType":"uint256"}],"stateMutability":"view"},{"type":"function","name":"markets","inputs":[{"name":"","type":"uint256","internalType":"uint256"}],"outputs":[{"name":"question","type":"string","internalType":"string"},{"name":"oracle","type":"address","internalType":"address"},{"name":"resolved","type":"bool","internalType":"bool"},{"name":"result","type":"uint8","internalType":"enum ConditionalToken.MarketState"},{"name":"createdAt","type":"uint256","internalType":"uint256"},{"name":"resolvedAt","type":"uint256","internalType":"uint256"}],"stateMutability":"view"},{"type":"function","name":"owner","inputs":[],"outputs":[{"name":"","type":"address","internalType":"address"}],"stateMutability":"view"},{"type":"function","name":"redeemPositions","inputs":[{"name":"marketId","type":"uint256","internalType":"uint256"},{"name":"amount","type":"uint256","internalType":"uint256"}],"outputs":[],"stateMutability":"nonpayable"},{"type":"function","name":"renounceOwnership","inputs":[],"outputs":[],"stateMutability":"nonpayable"},{"type":"function","name":"resolveMarket","inputs":[{"name":"marketId","type":"uint256","internalType":"uint256"},{"name":"_result","type":"uint8","internalType":"enum ConditionalToken.MarketState"}],"outputs":[],"stateMutability":"nonpayable"},{"type":"function","name":"safeBatchTransferFrom","inputs":[{"name":"from","type":"address","internalType":"address"},{"name":"to","type":"address","internalType":"address"},{"name":"ids","type":"uint256[]","internalType":"uint256[]"},{"name":"values","type":"uint256[]","internalType":"uint256[]"},{"name":"data","type":"bytes","internalType":"bytes"}],"outputs":[],"stateMutability":"nonpayable"},{"type":"function","name":"safeTransferFrom","inputs":[{"name":"from","type":"address","internalType":"address"},{"name":"to","type":"address","internalType":"address"},{"name":"id","type":"uint256","internalType":"uint256"},{"name":"value","type":"uint256","internalType":"uint256"},{"name":"data","type":"bytes","internalType":"bytes"}],"outputs":[],"stateMutability":"nonpayable"},{"type":"function","name":"setApprovalForAll","inputs":[{"name":"operator","type":"address","internalType":"address"},{"name":"approved","type":"bool","internalType":"bool"}],"outputs":[],"stateMutability":"nonpayable"},{"type":"function","name":"splitPosition","inputs":[{"name":"marketId","type":"uint256","internalType":"uint256"},{"name":"amount","type":"uint256","internalType":"uint256"}],"outputs":[],"stateMutability":"nonpayable"},{"type":"function","name":"supportsInterface","inputs":[{"name":"interfaceId","type":"bytes4","internalType":"bytes4"}],"outputs":[{"name":"","type":"bool","internalType":"bool"}],"stateMutability":"view"},{"type":"function","name":"transferOwnership","inputs":[{"name":"newOwner","type":"address","internalType":"address"}],"outputs":[],"stateMutability":"nonpayable"},{"type":"function","name":"uri","inputs":[{"name":"","type":"uint256","internalType":"uint256"}],"outputs":[{"name":"","type":"string","internalType":"string"}],"stateMutability":"view"},{"type":"function","name":"usedNonces","inputs":[{"name":"","type":"address","internalType":"address"},{"name":"","type":"uint256","internalType":"uint256"}],"outputs":[{"name":"","type":"bool","internalType":"bool"}],"stateMutability":"view"},{"type":"event","name":"ApprovalForAll","inputs":[{"name":"account","type":"address","indexed":true,"internalType":"address"},{"name":"operator","type":"address","indexed":true,"internalType":"address"},{"name":"approved","type":"bool","indexed":false,"internalType":"bool"}],"anonymous":false},{"type":"event","name":"EIP712DomainChanged","inputs":[],"anonymous":false},{"type":"event","name":"MarketCreated","inputs":[{"name":"marketId","type":"uint256","indexed":true,"internalType":"uint256"},{"name":"question","type":"string","indexed":false,"internalType":"string"},{"name":"oracle","type":"address","indexed":false,"internalType":"address"},{"name":"createdAt","type":"uint256","indexed":false,"internalType":"uint256"}],"anonymous":false},{"type":"event","name":"MarketResolved","inputs":[{"name":"marketId","type":"uint256","indexed":true,"internalType":"uint256"},{"name":"result","type":"uint8","indexed":false,"internalType":"enum ConditionalToken.MarketState"},{"name":"resolvedAt","type":"uint256","indexed":false,"internalType":"uint256"}],"anonymous":false},{"type":"event","name":"OrderFilled","inputs":[{"name":"marketId","type":"uint256","indexed":true,"internalType":"uint256"},{"name":"maker","type":"address","indexed":true,"internalType":"address"},{"name":"taker","type":"address","indexed":true,"internalType":"address"},{"name":"amount","type":"uint256","indexed":false,"internalType":"uint256"},{"name":"makerPrice","type":"uint256","indexed":false,"internalType":"uint256"},{"name":"takerPrice","type":"uint256","indexed":false,"internalType":"uint256"},{"name":"isYes","type":"bool","indexed":false,"internalType":"bool"},{"name":"relayer","type":"address","indexed":false,"internalType":"address"}],"anonymous":false},{"type":"event","name":"OwnershipTransferred","inputs":[{"name":"previousOwner","type":"address","indexed":true,"internalType":"address"},{"name":"newOwner","type":"address","indexed":true,"internalType":"address"}],"anonymous":false},{"type":"event","name":"PositionMerged","inputs":[{"name":"marketId","type":"uint256","indexed":true,"internalType":"uint256"},{"name":"user","type":"address","indexed":true,"internalType":"address"},{"name":"yesTokensBurned","type":"uint256","indexed":false,"internalType":"uint256"},{"name":"noTokensBurned","type":"uint256","indexed":false,"internalType":"uint256"},{"name":"amountRedeemed","type":"uint256","indexed":false,"internalType":"uint256"}],"anonymous":false},{"type":"event","name":"PositionRedeemed","inputs":[{"name":"marketId","type":"uint256","indexed":true,"internalType":"uint256"},{"name":"user","type":"address","indexed":true,"internalType":"address"},{"name":"tokensBurned","type":"uint256","indexed":false,"internalType":"uint256"},{"name":"amountRedeemed","type":"uint256","indexed":false,"internalType":"uint256"}],"anonymous":false},{"type":"event","name":"PositionSplit","inputs":[{"name":"marketId","type":"uint256","indexed":true,"internalType":"uint256"},{"name":"user","type":"address","indexed":true,"internalType":"address"},{"name":"amountCollateral","type":"uint256","indexed":false,"internalType":"uint256"},{"name":"yesTokens","type":"uint256","indexed":false,"internalType":"uint256"},{"name":"noTokens","type":"uint256","indexed":false,"internalType":"uint256"}],"anonymous":false},{"type":"event","name":"TransferBatch","inputs":[{"name":"operator","type":"address","indexed":true,"internalType":"address"},{"name":"from","type":"address","indexed":true,"internalType":"address"},{"name":"to","type":"address","indexed":true,"internalType":"address"},{"name":"ids","type":"uint256[]","indexed":false,"internalType":"uint256[]"},{"name":"values","type":"uint256[]","indexed":false,"internalType":"uint256[]"}],"anonymous":false},{"type":"event","name":"TransferSingle","inputs":[{"name":"operator","type":"address","indexed":true,"internalType":"address"},{"name":"from","type":"address","indexed":true,"internalType":"address"},{"name":"to","type":"address","indexed":true,"internalType":"address"},{"name":"id","type":"uint256","indexed":false,"internalType":"uint256"},{"name":"value","type":"uint256","indexed":false,"internalType":"uint256"}],"anonymous":false},{"type":"event","name":"URI","inputs":[{"name":"value","type":"string","indexed":false,"internalType":"string"},{"name":"id","type":"uint256","indexed":true,"internalType":"uint256"}],"anonymous":false},{"type":"error","name":"ERC1155InsufficientBalance","inputs":[{"name":"sender","type":"address","internalType":"address"},{"name":"balance","type":"uint256","internalType":"uint256"},{"name":"needed","type":"uint256","internalType":"uint256"},{"name":"tokenId","type":"uint256","internalType":"uint256"}]},{"type":"error","name":"ERC1155InvalidApprover","inputs":[{"name":"approver","type":"address","internalType":"address"}]},{"type":"error","name":"ERC1155InvalidArrayLength","inputs":[{"name":"idsLength","type":"uint256","internalType":"uint256"},{"name":"valuesLength","type":"uint256","internalType":"uint256"}]},{"type":"error","name":"ERC1155InvalidOperator","inputs":[{"name":"operator","type":"address","internalType":"address"}]},{"type":"error","name":"ERC1155InvalidReceiver","inputs":[{"name":"receiver","type":"address","internalType":"address"}]},{"type":"error","name":"ERC1155InvalidSender","inputs":[{"name":"sender","type":"address","internalType":"address"}]},{"type":"error","name":"ERC1155MissingApprovalForAll","inputs":[{"name":"operator","type":"address","internalType":"address"},{"name":"owner","type":"address","internalType":"address"}]},{"type":"error","name":"InvalidShortString","inputs":[]},{"type":"error","name":"OwnableInvalidOwner","inputs":[{"name":"owner","type":"address","internalType":"address"}]},{"type":"error","name":"OwnableUnauthorizedAccount","inputs":[{"name":"account","type":"address","internalType":"address"}]},{"type":"error","name":"ReentrancyGuardReentrantCall","inputs":[]},{"type":"error","name":"SafeERC20FailedOperation","inputs":[{"name":"token","type":"address","internalType":"address"}]},{"type":"error","name":"StringTooLong","inputs":[{"name":"str","type":"string","internalType":"string"}]}],"bytecode":{"object":"0x6101803462000329576001600160401b0390601f6200383c38819003918201601f191683019184831184841017620002ca57808492604094855283396020938491810103126200032957516001600160a01b0380821692909183900362000329578051916200006e836200032d565b60108352848301946f506f6c796d61726b657420436c6f6e6560801b86528251966200009a886200032d565b600180895282890190603160f81b8252838651620000b8816200032d565b6013815201907f506f6c796d61726b657420506f736974696f6e000000000000000000000000008252600254600181811c911680156200031e575b868210146200030a57601f8111620002de575b5050516001600160681b031916602617600255620001248662000349565b97610120988952620001368a62000501565b96610140978852519020988960e05251902061010098818a524660a052855191848301917f8b73c3c69bb8fe3d512ecc4cf759cc79239f7b179b0ffacaa9a75d522b39400f83528784015260608301524660808301523060a083015260a0825260c082019282841090841117620002ca57828652815190206080523060c05260016005553315620002b457505060068054336001600160a01b031982168117909255845193167f8be0079c531659141344cd1fd0a4f28419497f9722a3daafe3b4186f6b6457e05f80a3841562000273575050610160928352519261317c9485620006c0863960805185612f89015260a05185613044015260c05185612f53015260e05185612fd801525184612ffe01525183610f8501525182610fb10152518181816102d401528181610dfc0152818161169f015261184b0152f35b62461bcd60e51b82526004820152601860248201527f496e76616c696420636f6c6c61746572616c20746f6b656e0000000000000000604482015260649150fd5b631e4fbdf760e01b82525f60c490910152602490fd5b634e487b7160e01b5f52604160045260245ffd5b60025f52601f865f20910160051c8101905b818110620002ff575062000106565b5f81558201620002f0565b634e487b7160e01b5f52602260045260245ffd5b90607f1690620000f3565b5f80fd5b604081019081106001600160401b03821117620002ca57604052565b80516020919082811015620003e5575090601f8251116200038657808251920151908083106200037857501790565b825f19910360031b1b161790565b90604051809263305a27a960e01b82528060048301528251908160248401525f935b828510620003cb575050604492505f838284010152601f80199101168101030190fd5b8481018201518686016044015293810193859350620003a8565b6001600160401b038111620002ca576003928354926001938481811c91168015620004f6575b838210146200030a57601f8111620004c0575b5081601f84116001146200045b57509282939183925f946200044f575b50501b915f1990841b1c191617905560ff90565b015192505f806200043b565b919083601f198116875f52845f20945f905b88838310620004a557505050106200048d575b505050811b01905560ff90565b01515f1983861b60f8161c191690555f808062000480565b8587015188559096019594850194879350908101906200046d565b855f5284601f845f20920160051c820191601f860160051c015b828110620004ea5750506200041e565b5f8155018590620004da565b90607f16906200040b565b805160209190828110156200058f575090601f8251116200053057808251920151908083106200037857501790565b90604051809263305a27a960e01b82528060048301528251908160248401525f935b82851062000575575050604492505f838284010152601f80199101168101030190fd5b848101820151868601604401529381019385935062000552565b6001600160401b038111620002ca576004928354926001938481811c91168015620006b4575b83821014620006a157601f81116200066b575b5081601f84116001146200060657509282939183925f94620005fa575b50501b915f199060031b1c191617905560ff90565b015192505f80620005e5565b919083601f198116875f52845f20945f905b888383106200065057505050106200063757505050811b01905560ff90565b01515f1960f88460031b161c191690555f808062000480565b85870151885590960195948501948793509081019062000618565b855f5284601f845f20920160051c820191601f860160051c015b82811062000695575050620005c8565b5f815501859062000685565b602286634e487b7160e01b5f525260245ffd5b90607f1690620005b556fe60806040526004361015610011575f80fd5b5f3560e01c8062fdd58e1461018357806301ffc9a71461017e57806304d5b62d146101795780630e89341c14610174578063247608071461016f57806329e295c51461016a5780632eb2c2d614610165578063421dc861146101605780634e1273f41461015b57806352d6cfcc146101565780636a8a689414610151578063715018a61461014c57806384b0196e146101475780638da5cb5b14610142578063a22cb4651461013d578063b1283e7714610138578063dd39f00d14610133578063df55406e1461012e578063e985e9c514610129578063f242432a14610124578063f2fde38b1461011f578063f3f2ef071461011a5763f5f1f1a714610115575f80fd5b611836565b6115bc565b61152c565b61146d565b611409565b6112e3565b61129b565b6111f8565b61105f565b61102d565b610f6d565b610f12565b610ec6565b610a89565b6109ab565b61081a565b6106c5565b6104e9565b6104cc565b6103e9565b610269565b6101fb565b61019d565b6001600160a01b0381160361019957565b5f80fd5b346101995760403660031901126101995760206101e06004356101bf81610188565b6024355f525f835260405f209060018060a01b03165f5260205260405f2090565b54604051908152f35b6001600160e01b031981160361019957565b3461019957602036600319011261019957602060043561021a816101e9565b63ffffffff60e01b16636cdb3d1360e11b8114908115610258575b8115610247575b506040519015158152f35b6301ffc9a760e01b1490505f61023c565b6303a24d0760e21b81149150610235565b3461019957604036600319011261019957602435600435610288612251565b610295600754821061187a565b805f5260086020526102c16102bc6102b8600160405f200160ff905460a01c1690565b1590565b6118be565b6102cc82151561190a565b6102f88230337f0000000000000000000000000000000000000000000000000000000000000000612274565b610359610304826122cc565b61030d836122ed565b90610316611956565b9161031f611956565b9161032984611998565b52610333836119b9565b528461033e82611998565b5284610349826119b9565b526103526119dd565b913361230e565b7ff4fa9b33b28558dd0bfd02f6f3a90796c854fac9923b99d6b0bfa5e6b819860a6040518061039c33958080846040919493926060820195825260208201520152565b0390a36103a96001600555565b005b91908251928382525f5b8481106103d5575050825f602080949584010152601f8019910116010190565b6020818301810151848301820152016103b5565b346101995760208060031936011261019957604051905f826002549161040e83611111565b92838352600190856001821691825f146104ac575050600114610451575b50610439925003836105af565b61044d6040519282849384528301906103ab565b0390f35b84915060025f527f405787fa12a823e0f2b7631cc41b3ba8828b3321ca811111fa75cd3aa3bb5ace905f915b85831061049457505061043993508201015f61042c565b8054838901850152879450869390920191810161047d565b60ff19168582015261043995151560051b85010192505f915061042c9050565b34610199575f366003190112610199576020600754604051908152f35b346101995760203660031901126101995760043561050681610188565b60018060a01b03165f52600a602052602060ff60405f2054166040519015158152f35b634e487b7160e01b5f52604160045260245ffd5b60c081019081106001600160401b0382111761055857604052565b610529565b602081019081106001600160401b0382111761055857604052565b61010081019081106001600160401b0382111761055857604052565b604081019081106001600160401b0382111761055857604052565b90601f801991011681019081106001600160401b0382111761055857604052565b604051906105dd8261053d565b565b6001600160401b0381116105585760051b60200190565b9080601f83011215610199576020908235610610816105df565b9361061e60405195866105af565b81855260208086019260051b82010192831161019957602001905b828210610647575050505090565b81358152908301908301610639565b6001600160401b03811161055857601f01601f191660200190565b92919261067d82610656565b9161068b60405193846105af565b829481845281830111610199578281602093845f960137010152565b9080601f83011215610199578160206106c293359101610671565b90565b346101995760a036600319011261019957600480356106e381610188565b6024356106ef81610188565b6001600160401b03906044358281116101995761070f90369086016105f6565b906064358381116101995761072790369087016105f6565b926084359081116101995761073f90369087016106a7565b936001600160a01b038082169033821415806107ca575b61079d578316156107865715610770576103a995506127a1565b604051626a0d4560e21b81525f81880152602490fd5b604051632bfa23e760e11b81525f81890152602490fd5b6040805163711bec9160e11b815233818b019081526001600160a01b038616602082015290918291010390fd5b505f82815260016020908152604080832033845290915290205460ff1615610756565b9181601f84011215610199578235916001600160401b038311610199576020838186019501011161019957565b34610199576040366003190112610199576004356001600160401b0381116101995761084a9036906004016107ed565b906024359061085882610188565b6001600160a01b03821615610929577f069da8c9710c1600001ae111f110050f586b7fcd73d420b5eb03747f67e86d0d610916928461089b61044d9615156119ef565b6007549485946108b26108ad87611a4f565b600755565b6109086108bd6105d0565b6108c8368685610671565b81526001600160a01b03861660208201525f60408201525f60608201524260808201525f60a0820152610903885f52600860205260405f2090565b611ad5565b604051938493429285611c2b565b0390a26040519081529081906020820190565b60405162461bcd60e51b8152602060048201526016602482015275496e76616c6964206f7261636c65206164647265737360501b6044820152606490fd5b9081518082526020808093019301915f5b828110610986575050505090565b835185529381019392810192600101610978565b9060206106c2928181520190610967565b34610199576040366003190112610199576004356001600160401b0380821161019957366023830112156101995781600401356109e7816105df565b926109f560405194856105af565b8184526020916024602086019160051b8301019136831161019957602401905b828210610a4e57856024358681116101995761044d91610a3c610a429236906004016105f6565b90611c68565b6040519182918261099a565b8380918335610a5c81610188565b815201910190610a15565b60c090600319011261019957600490565b60c09060c31901126101995760c490565b34610199576101c036600319011261019957610aa436610a67565b610aad36610a78565b906001600160401b036101843581811161019957610acf9036906004016107ed565b6101a435928311610199578492610aea9036906004016107ed565b9190610af4612251565b604086013590610b05821515611d25565b604086013592610b16841515611d68565b602088013596879360208201358514610b2e90611dab565b60808a01958694610b3e86611de9565b610b4a60808601611de9565b1515610b599115151415611df3565b610b628c611e37565b98610b6c85611e37565b6001600160a01b03166001600160a01b039a610b8c91908c161415611e41565b6007548810610b9a9061187a565b610bac885f52600860205260405f2090565b6001015460a01c60ff1615610bc090611e8d565b8c610bca81611e37565b6001600160a01b03165f9081526009602052604090209660a08201359788610bf991905f5260205260405f2090565b5460ff1615610c0790611ecb565b610c1087611e37565b6001600160a01b03165f9081526009602052604090209c60a08801359d8e610c3f91905f5260205260405f2090565b5460ff1615610c4d90611f0a565b610c5683611e37565b9236610c6191611f49565b610c6a9061243f565b913690610c7692610671565b90610c809261298e565b610c8990611fbb565b610c9285611e37565b91610c9d3687611f49565b610ca69061243f565b913690610cb292610671565b90610cbc9261298e565b610cc590612007565b60608b01359a8b99606085013595610cdd878d612053565b61271014610cea90612060565b610cf383611e37565b6001600160a01b03165f9081526009602052604090205f91825260205260409020805460ff19166001179055610d2885611e37565b6001600160a01b03165f9081526009602052604090205f91825260205260409020805460ff191660011790558183105f147fe2d105a217d49b847bec91bb7628a600e2c99c1db7e6401396d3ece796f1f8f29a610e7298610e3f96610e3996610e3396610e2e95610ebc5750998a925b610da182611de9565b15610ead57610daf906122cc565b915b610dba82611de9565b15610ea05783610dd2610dcc89611e37565b93611de9565b15610e8b57610df0610df891610dea610e2094611e37565b976120ac565b612710900490565b85837f0000000000000000000000000000000000000000000000000000000000000000612274565b610e286119dd565b936124e8565b611e37565b9a611e37565b94611de9565b604080519384526020840199909952978201529515156060870152336080870152908216959091169390819060a0820190565b0390a4610e7f6001600555565b60405160018152602090f35b610e209150610df0610df891610dea8a611e37565b83610dd2610dcc83611e37565b610eb6906122ed565b91610db1565b9050998a92610d98565b3461019957604036600319011261019957600435610ee381610188565b60018060a01b03165f52600960205260405f206024355f52602052602060ff60405f2054166040519015158152f35b34610199575f36600319011261019957610f2a61254e565b600680546001600160a01b031981169091555f906001600160a01b03167f8be0079c531659141344cd1fd0a4f28419497f9722a3daafe3b4186f6b6457e08280a3005b34610199575f36600319011261019957610fff610fa97f0000000000000000000000000000000000000000000000000000000000000000612a4f565b61044d610fd57f0000000000000000000000000000000000000000000000000000000000000000612b4d565b61100d610fe0611982565b91604051958695600f60f81b875260e0602088015260e08701906103ab565b9085820360408701526103ab565b904660608501523060808501525f60a085015283820360c0850152610967565b34610199575f366003190112610199576006546040516001600160a01b039091168152602090f35b8015150361019957565b346101995760403660031901126101995760043561107c81610188565b60243561108881611055565b6001600160a01b0382169182156110fa57335f9081526001602090815260408083206001600160a01b039094168352929052209015159060ff1981541660ff83161790556040519081527f17307eab39ab6107e8899845ad3d59bd9653f200f220920489ca2b5937696c3160203392a3005b60405162ced3e160e81b81525f6004820152602490fd5b90600182811c9216801561113f575b602083101461112b57565b634e487b7160e01b5f52602260045260245ffd5b91607f1691611120565b80545f939261115782611111565b918282526020936001916001811690815f146111bb575060011461117d575b5050505050565b90939495505f92919252835f2092845f945b8386106111a757505050500101905f80808080611176565b80548587018301529401938590820161118f565b60ff19168685015250505090151560051b010191505f80808080611176565b600411156111e457565b634e487b7160e01b5f52602160045260245ffd5b34610199576020366003190112610199576004355f52600860205261126260405f20604051906112338261122c8184611149565b03836105af565b60018101549060ff8260a81c1690600360028201549101549160ff60405196879660c0885260c08801906103ab565b6001600160a01b038616602088015260a09590951c1615156040860152611288816111da565b6060850152608084015260a08301520390f35b34610199576020366003190112610199576004356112b881610188565b6112c061254e565b6001600160a01b03165f908152600a60205260409020805460ff19166001179055005b34610199576040366003190112610199576004356024356004811015610199576114047f661ce16e44a34377fc37c19874f4b1bec6e84b072cf8d318838fe17c20c58e4491611335600754851061187a565b5f8481526008602052604090206001015461135a906001600160a01b031633146120bf565b6113826102bc6102b86001611377885f52600860205260405f2090565b015460a01c60ff1690565b61138b816111da565b61139681151561210b565b6113c160016113ad865f52600860205260405f2090565b01805460ff60a01b1916600160a01b179055565b6113df8160016113d9875f52600860205260405f2090565b01611ab1565b4260036113f4865f52600860205260405f2090565b015560405191829142908361214e565b0390a2005b3461019957604036600319011261019957602060ff61146160043561142d81610188565b6024359061143a82610188565b60018060a01b03165f526001845260405f209060018060a01b03165f5260205260405f2090565b54166040519015158152f35b346101995760a03660031901126101995760043561148a81610188565b60243561149681610188565b6084356001600160401b038111610199576114b59036906004016106a7565b906001600160a01b038316338114159081611508575b506114e1576103a99260643591604435916124e8565b60405163711bec9160e11b81523360048201526001600160a01b0384166024820152604490fd5b5f90815260016020908152604080832033845290915281205460ff161591506114cb565b346101995760203660031901126101995760043561154981610188565b61155161254e565b6001600160a01b039081169081156115a457600654826bffffffffffffffffffffffff60a01b821617600655167f8be0079c531659141344cd1fd0a4f28419497f9722a3daafe3b4186f6b6457e05f80a3005b604051631e4fbdf760e01b81525f6004820152602490fd5b34610199576040366003190112610199576024356004356115db612251565b6115e8600754821061187a565b600161160861160382611377855f52600860205260405f2090565b612168565b6116298161161e845f52600860205260405f2090565b015460a81c60ff1690565b611632816111da565b8082036116dc5750505f8051602061312783398151915261039c611655836122cc565b6116988580925b6116928261168a33611675855f525f60205260405f2090565b9060018060a01b03165f5260205260405f2090565b54101561220f565b3361257a565b6116c381337f00000000000000000000000000000000000000000000000000000000000000006126f1565b6040805195865260208601919091523394918291820190565b6116e5816111da565b600281036117145750505f8051602061312783398151915261039c611709836122ed565b61169885809261165c565b806117206003926111da565b036117fc57611731818416156121b4565b8261175861173e846122cc565b5f9081526020818152604080832033845290915290205490565b106117855761039c5f8051602061312783398151915291611698858061177d876122cc565b931c9261165c565b8261179261173e846122ed565b106117b75761039c5f8051602061312783398151915291611698858061177d876122ed565b60405162461bcd60e51b815260206004820152601d60248201527f496e73756666696369656e7420746f6b656e7320746f2072656465656d0000006044820152606490fd5b60405162461bcd60e51b815260206004820152601260248201527126b0b935b2ba1039ba30ba329032b93937b960711b6044820152606490fd5b34610199575f366003190112610199576040517f00000000000000000000000000000000000000000000000000000000000000006001600160a01b03168152602090f35b1561188157565b60405162461bcd60e51b815260206004820152601560248201527413585c9ad95d08191bd95cc81b9bdd08195e1a5cdd605a1b6044820152606490fd5b156118c557565b60405162461bcd60e51b815260206004820152601760248201527f4d61726b657420616c7265616479207265736f6c7665640000000000000000006044820152606490fd5b1561191157565b60405162461bcd60e51b815260206004820152601d60248201527f416d6f756e74206d7573742062652067726561746572207468616e20300000006044820152606490fd5b60405190606082018281106001600160401b038211176105585760405260028252604082602036910137565b60405161198e8161055d565b5f8152905f368137565b8051156119a55760200190565b634e487b7160e01b5f52603260045260245ffd5b8051600110156119a55760400190565b80518210156119a55760209160051b010190565b604051906119ea8261055d565b5f8252565b156119f657565b60405162461bcd60e51b815260206004820152601860248201527f5175657374696f6e2063616e6e6f7420626520656d70747900000000000000006044820152606490fd5b634e487b7160e01b5f52601160045260245ffd5b5f198114611a5d5760010190565b611a3b565b601f8211611a6f57505050565b5f5260205f20906020601f840160051c83019310611aa7575b601f0160051c01905b818110611a9c575050565b5f8155600101611a91565b9091508190611a88565b90611abb816111da565b815460ff60a81b191660a89190911b60ff60a81b16179055565b9080518051906001600160401b03821161055857611afd82611af78654611111565b86611a62565b602090816001601f851114611bbb57508260a09360039593611b34935f92611bb0575b50508160011b915f199060031b1c19161790565b84555b60208101516001850180546001600160a01b0319166001600160a01b03909216919091178155611b9f90611b8b611b716040850151151590565b825460ff60a01b191690151560a01b60ff60a01b16178255565b606083015190611b9a826111da565b611ab1565b608081015160028501550151910155565b015190505f80611b20565b9190601f198416611bcf875f5260205f2090565b935f905b828210611c1357505092600192859260a0966003989610611bfc575b505050811b018455611b37565b01515f1983881b60f8161c191690555f8080611bef565b80600186978294978701518155019601940190611bd3565b90826040936080929796959760608552816060860152838501375f828285010152601f80199101168201019460018060a01b031660208201520152565b91909180518351808203611d03575050805190611c9d611c87836105df565b92611c9560405194856105af565b8084526105df565b60209190601f190136848401375f5b8151811015611cfb57600581901b8281018401519087018401515f908152602081815260408083206001600160a01b039094168352929052205460019190611cf482876119c9565b5201611cac565b509193505050565b604051635b05999160e01b815260048101919091526024810191909152604490fd5b15611d2c57565b60405162461bcd60e51b8152602060048201526014602482015273125b9d985b1a59081b585ad95c88185b5bdd5b9d60621b6044820152606490fd5b15611d6f57565b60405162461bcd60e51b8152602060048201526014602482015273125b9d985b1a59081d185ad95c88185b5bdd5b9d60621b6044820152606490fd5b15611db257565b60405162461bcd60e51b815260206004820152600f60248201526e09ac2e4d6cae840dad2e6dac2e8c6d608b1b6044820152606490fd5b356106c281611055565b15611dfa57565b60405162461bcd60e51b815260206004820152601560248201527453696465206d757374206265206f70706f7369746560581b6044820152606490fd5b356106c281610188565b15611e4857565b60405162461bcd60e51b815260206004820152601860248201527f53656c662d74726164696e67206e6f7420616c6c6f77656400000000000000006044820152606490fd5b15611e9457565b60405162461bcd60e51b815260206004820152600f60248201526e13585c9ad95d081c995cdbdb1d9959608a1b6044820152606490fd5b15611ed257565b60405162461bcd60e51b815260206004820152601060248201526f13585ad95c881b9bdb98d9481d5cd95960821b6044820152606490fd5b15611f1157565b60405162461bcd60e51b815260206004820152601060248201526f15185ad95c881b9bdb98d9481d5cd95960821b6044820152606490fd5b91908260c09103126101995760405160c081018181106001600160401b038211176105585760405260a08082948035611f8181610188565b84526020810135602085015260408101356040850152606081013560608501526080810135611faf81611055565b60808501520135910152565b15611fc257565b60405162461bcd60e51b815260206004820152601760248201527f496e76616c6964206d616b6572207369676e61747572650000000000000000006044820152606490fd5b1561200e57565b60405162461bcd60e51b815260206004820152601760248201527f496e76616c69642074616b6572207369676e61747572650000000000000000006044820152606490fd5b91908201809211611a5d57565b1561206757565b60405162461bcd60e51b815260206004820152601860248201527f5072696365206d7573742073756d20746f2031205553444300000000000000006044820152606490fd5b81810292918115918404141715611a5d57565b156120c657565b60405162461bcd60e51b815260206004820152601760248201527f4f6e6c79206f7261636c652063616e207265736f6c76650000000000000000006044820152606490fd5b1561211257565b60405162461bcd60e51b8152602060048201526014602482015273496e76616c696420726573756c7420737461746560601b6044820152606490fd5b6040810193929160209190612162816111da565b81520152565b1561216f57565b60405162461bcd60e51b815260206004820152601760248201527f4d61726b6574206e6f74207265736f6c766564207965740000000000000000006044820152606490fd5b156121bb57565b60405162461bcd60e51b815260206004820152602660248201527f416d6f756e74206d757374206265206576656e20666f7220496e76616c6964206044820152651b585c9ad95d60d21b6064820152608490fd5b1561221657565b60405162461bcd60e51b8152602060048201526013602482015272496e73756666696369656e7420746f6b656e7360681b6044820152606490fd5b600260055414612262576002600555565b604051633ee5aeb560e01b8152600490fd5b6040516323b872dd60e01b60208201526001600160a01b03928316602482015292909116604483015260648083019390935291815260a08101918183106001600160401b03841117610558576105dd9260405261273c565b8060011b9080820460021490151715611a5d5760018101809111611a5d5790565b8060011b9080820460021490151715611a5d5760028101809111611a5d5790565b6001600160a01b038116939091908415612427578151845190818103611d035750505f5b8251811015612377578060019160051b61236f61236787611675602080868b010151958c010151945f525f60205260405f2090565b918254612053565b905501612332565b5092919360018251145f146123ec576020828101518482015160408051928352928201525f9133917fc3d58168c5ae7397731d063d5bbf3d657854427343f4c083240f7aacaa2d0f629190a45b80516001036123e257906020806105dd959301519101519133612ee4565b6105dd9333612cef565b5f6040517f4a39dc06d4c0dbc64b70af90fd698a233a518aa5d07e595d983b8c0526c8f7fb33918061241f888883612c0a565b0390a46123c4565b604051632bfa23e760e11b81525f6004820152602490fd5b60429060018060a01b0381511690602081015190604081015190606081015160a060808301511515920151926040519460208601967f05fda102cc057aa9d2cd6e8c799feac709a2efc4c074b949747719054a612a3f885260408701526060860152608085015260a084015260c083015260e082015260e081526124c281610578565b5190206124cd612f50565b906040519161190160f01b8352600283015260228201522090565b92939290916001600160a01b038084161561242757821615612537576105dd9461252f60405192600184526020840152604083019160018352606084015260808301604052565b9290916127a1565b604051626a0d4560e21b81525f6004820152602490fd5b6006546001600160a01b0316330361256257565b60405163118cdaa760e01b8152336004820152602490fd5b6001600160a01b038116929091908315612537576125b560405192600184526020840152604083019160018352606084015260808301604052565b91906040945f6040516125c78161055d565b528151845190818103611d035750505f5b8251811015612668578060051b6020808286010151918701015161260786611675845f525f60205260405f2090565b548181106126325786611675600195949361262b9303935f525f60205260405f2090565b55016125d8565b89516303dee4c560e01b81526001600160a01b038816600482015260248101919091526044810182905260648101839052608490fd5b5094505f93929150600181511484146126be5760209081015191810151604080519384529183015233917fc3d58168c5ae7397731d063d5bbf3d657854427343f4c083240f7aacaa2d0f6291819081015b0390a4565b60405133927f4a39dc06d4c0dbc64b70af90fd698a233a518aa5d07e595d983b8c0526c8f7fb9282916126b99183612c0a565b60405163a9059cbb60e01b60208201526001600160a01b03909216602483015260448083019390935291815260808101916001600160401b03831182841017610558576105dd926040525b905f602091828151910182855af115612796575f513d61278d57506001600160a01b0381163b155b61276b5750565b604051635274afe760e01b81526001600160a01b039091166004820152602490fd5b60011415612764565b6040513d5f823e3d90fd5b949190918151845190818103611d035750505f5b825181101561289a57600581901b83810160209081015191870101516001600160a01b03929186908a851661281a575b60019482166127f8575b505050016127b5565b61281091611675612367925f525f60205260405f2090565b90555f85816127ef565b91929390506128348a611675845f525f60205260405f2090565b54838110612863579187918460019695940361285b8d611675855f525f60205260405f2090565b5594506127e5565b6040516303dee4c560e01b81526001600160a01b038c16600482015260248101919091526044810184905260648101839052608490fd5b5094919392909360018551145f14612943576020858101518382015160408051928352928201526001600160a01b03838116929086169133917fc3d58168c5ae7397731d063d5bbf3d657854427343f4c083240f7aacaa2d0f6291a45b6001600160a01b03811661290c575050505050565b8451600103612932576020806129289601519201519233612f19565b5f80808080611176565b61293e94919233612de8565b612928565b6040516001600160a01b03828116919085169033907f4a39dc06d4c0dbc64b70af90fd698a233a518aa5d07e595d983b8c0526c8f7fb9080612986888c83612c0a565b0390a46128f7565b9091813b6129c9576129a0919261306a565b506129aa816111da565b1591826129b657505090565b6001600160a01b03918216911614919050565b5f918291604051612a0c816129fe6020820194630b135d3f60e11b998a875260248401526040604484015260648301906103ab565b03601f1981018352826105af565b51915afa90612a19612cc0565b82612a41575b82612a2957505090565b90915060208180518101031261019957602001511490565b915060208251101591612a1f565b60ff8114612a8d5760ff811690601f8211612a7b5760405191612a7183610594565b8252602082015290565b604051632cd44ac360e21b8152600490fd5b50604051600354815f612a9f83611111565b80835292602090600190818116908115612b295750600114612aca575b50506106c2925003826105af565b91509260035f527fc2575a0e9e593c00f959f8c92f12db2869c3395a3b0502d05e2516446f71f85b935f925b828410612b1157506106c29450505081016020015f80612abc565b85548785018301529485019486945092810192612af6565b915050602092506106c294915060ff191682840152151560051b8201015f80612abc565b60ff8114612b6f5760ff811690601f8211612a7b5760405191612a7183610594565b50604051600454815f612b8183611111565b80835292602090600190818116908115612b295750600114612bab5750506106c2925003826105af565b91509260045f527f8a35acfbc15ff81a39ae7d344fd709f28e8600b4aa8c65c6b64bfe7fe36bd19b935f925b828410612bf257506106c29450505081016020015f80612abc565b85548785018301529485019486945092810192612bd7565b9091612c216106c293604084526040840190610967565b916020818403910152610967565b9081602091031261019957516106c2816101e9565b92612c726106c29593612c809360018060a01b031686525f602087015260a0604087015260a0860190610967565b908482036060860152610967565b9160808184039101526103ab565b93906106c29593612c7291612c809460018060a01b03809216885216602087015260a0604087015260a0860190610967565b3d15612cea573d90612cd182610656565b91612cdf60405193846105af565b82523d5f602084013e565b606090565b9293919093843b612d01575050505050565b602091612d24604051948593849363bc197c8160e01b9889865260048601612c44565b03815f6001600160a01b0388165af15f9181612db7575b50612d7a5782612d49612cc0565b8051919082612d7357604051632bfa23e760e11b81526001600160a01b0383166004820152602490fd5b6020915001fd5b6001600160e01b03191603612d9457505f80808080611176565b604051632bfa23e760e11b81526001600160a01b03919091166004820152602490fd5b612dda91925060203d602011612de1575b612dd281836105af565b810190612c2f565b905f612d3b565b503d612dc8565b939290949194853b612dfd575b505050505050565b612e20602093604051958694859463bc197c8160e01b998a875260048701612c8e565b03815f6001600160a01b0388165af15f9181612e60575b50612e455782612d49612cc0565b6001600160e01b03191603612d9457505f8080808080612df5565b612e7a91925060203d602011612de157612dd281836105af565b905f612e37565b909260a0926106c29594600180861b031683525f60208401526040830152606082015281608082015201906103ab565b91926106c295949160a094600180871b0380921685521660208401526040830152606082015281608082015201906103ab565b9293919093843b612ef6575050505050565b602091612d24604051948593849363f23a6e6160e01b9889865260048601612e81565b939290949194853b612f2d57505050505050565b612e20602093604051958694859463f23a6e6160e01b998a875260048701612eb1565b307f00000000000000000000000000000000000000000000000000000000000000006001600160a01b03161480613041575b15612fab577f000000000000000000000000000000000000000000000000000000000000000090565b60405160208101907f8b73c3c69bb8fe3d512ecc4cf759cc79239f7b179b0ffacaa9a75d522b39400f82527f000000000000000000000000000000000000000000000000000000000000000060408201527f000000000000000000000000000000000000000000000000000000000000000060608201524660808201523060a082015260a0815261303b8161053d565b51902090565b507f00000000000000000000000000000000000000000000000000000000000000004614612f82565b815191906041830361309a576130939250602082015190606060408401519301515f1a906130a4565b9192909190565b50505f9160029190565b91907f7fffffffffffffffffffffffffffffff5d576e7357a4501ddfe92f46681b20a0841161311b579160209360809260ff5f9560405194855216868401526040830152606082015282805260015afa15612796575f516001600160a01b0381161561311157905f905f90565b505f906001905f90565b5050505f916003919056fe9c973a546ff6d1f19cd64fffb35f827eb800b6e1b5d476ba51993b97788bc60ea26469706673582212203b65e519290ff9f10f5fc7db91ec6d82cdc8ad1ad934d8a3c44e224af8df3c7964736f6c63430008180033","linkReferences":{}},"methodIdentifiers":{"COLLATERAL_TOKEN()":"f5f1f1a7","addRelayer(address)":"dd39f00d","authorizedRelayers(address)":"29e295c5","balanceOf(address,uint256)":"00fdd58e","balanceOfBatch(address[],uint256[])":"4e1273f4","createCondition(string,address)":"421dc861","eip712Domain()":"84b0196e","fillOrder((address,uint256,uint256,uint256,bool,uint256),(address,uint256,uint256,uint256,bool,uint256),bytes,bytes)":"52d6cfcc","isApprovedForAll(address,address)":"e985e9c5","marketCounter()":"24760807","markets(uint256)":"b1283e77","owner()":"8da5cb5b","redeemPositions(uint256,uint256)":"f3f2ef07","renounceOwnership()":"715018a6","resolveMarket(uint256,uint8)":"df55406e","safeBatchTransferFrom(address,address,uint256[],uint256[],bytes)":"2eb2c2d6","safeTransferFrom(address,address,uint256,uint256,bytes)":"f242432a","setApprovalForAll(address,bool)":"a22cb465","splitPosition(uint256,uint256)":"04d5b62d","supportsInterface(bytes4)":"01ffc9a7","transferOwnership(address)":"f2fde38b","uri(uint256)":"0e89341c","usedNonces(address,uint256)":"6a8a6894"},"id":53}